{
  "contractName": "MedicalRecord",
  "abi": [
    {
      "inputs": [],
      "stateMutability": "nonpayable",
      "type": "constructor"
    },
    {
      "anonymous": false,
      "inputs": [
        {
          "indexed": true,
          "internalType": "uint256",
          "name": "patientId",
          "type": "uint256"
        },
        {
          "indexed": false,
          "internalType": "address",
          "name": "grantedTo",
          "type": "address"
        }
      ],
      "name": "AccessGranted",
      "type": "event"
    },
    {
      "anonymous": false,
      "inputs": [
        {
          "indexed": true,
          "internalType": "uint256",
          "name": "patientId",
          "type": "uint256"
        },
        {
          "indexed": false,
          "internalType": "address",
          "name": "revokedFrom",
          "type": "address"
        }
      ],
      "name": "AccessRevoked",
      "type": "event"
    },
    {
      "anonymous": false,
      "inputs": [
        {
          "indexed": true,
          "internalType": "uint256",
          "name": "historyId",
          "type": "uint256"
        },
        {
          "indexed": true,
          "internalType": "uint256",
          "name": "patientId",
          "type": "uint256"
        },
        {
          "indexed": false,
          "internalType": "string",
          "name": "diagnosis",
          "type": "string"
        },
        {
          "indexed": false,
          "internalType": "string",
          "name": "treatment",
          "type": "string"
        }
      ],
      "name": "MedicalHistoryAdded",
      "type": "event"
    },
    {
      "anonymous": false,
      "inputs": [
        {
          "indexed": true,
          "internalType": "uint256",
          "name": "patientId",
          "type": "uint256"
        },
        {
          "indexed": false,
          "internalType": "string",
          "name": "patientName",
          "type": "string"
        },
        {
          "indexed": false,
          "internalType": "string",
          "name": "icNumber",
          "type": "string"
        }
      ],
      "name": "PatientAdded",
      "type": "event"
    },
    {
      "inputs": [
        {
          "internalType": "uint256",
          "name": "",
          "type": "uint256"
        },
        {
          "internalType": "address",
          "name": "",
          "type": "address"
        }
      ],
      "name": "hasAccess",
      "outputs": [
        {
          "internalType": "bool",
          "name": "",
          "type": "bool"
        }
      ],
      "stateMutability": "view",
      "type": "function",
      "constant": true
    },
    {
      "inputs": [
        {
          "internalType": "uint256",
          "name": "",
          "type": "uint256"
        }
      ],
      "name": "medicalHistories",
      "outputs": [
        {
          "internalType": "uint256",
          "name": "historyId",
          "type": "uint256"
        },
        {
          "internalType": "uint256",
          "name": "patientId",
          "type": "uint256"
        },
        {
          "internalType": "string",
          "name": "diagnosis",
          "type": "string"
        },
        {
          "internalType": "string",
          "name": "treatment",
          "type": "string"
        },
        {
          "internalType": "string",
          "name": "doctorNotes",
          "type": "string"
        },
        {
          "internalType": "address",
          "name": "createdBy",
          "type": "address"
        },
        {
          "internalType": "uint256",
          "name": "visitDate",
          "type": "uint256"
        }
      ],
      "stateMutability": "view",
      "type": "function",
      "constant": true
    },
    {
      "inputs": [],
      "name": "medicalHistoryCount",
      "outputs": [
        {
          "internalType": "uint256",
          "name": "",
          "type": "uint256"
        }
      ],
      "stateMutability": "view",
      "type": "function",
      "constant": true
    },
    {
      "inputs": [],
      "name": "owner",
      "outputs": [
        {
          "internalType": "address",
          "name": "",
          "type": "address"
        }
      ],
      "stateMutability": "view",
      "type": "function",
      "constant": true
    },
    {
      "inputs": [],
      "name": "patientCount",
      "outputs": [
        {
          "internalType": "uint256",
          "name": "",
          "type": "uint256"
        }
      ],
      "stateMutability": "view",
      "type": "function",
      "constant": true
    },
    {
      "inputs": [
        {
          "internalType": "uint256",
          "name": "",
          "type": "uint256"
        },
        {
          "internalType": "uint256",
          "name": "",
          "type": "uint256"
        }
      ],
      "name": "patientMedicalHistories",
      "outputs": [
        {
          "internalType": "uint256",
          "name": "",
          "type": "uint256"
        }
      ],
      "stateMutability": "view",
      "type": "function",
      "constant": true
    },
    {
      "inputs": [
        {
          "internalType": "uint256",
          "name": "",
          "type": "uint256"
        }
      ],
      "name": "patients",
      "outputs": [
        {
          "internalType": "uint256",
          "name": "patientId",
          "type": "uint256"
        },
        {
          "internalType": "string",
          "name": "patientName",
          "type": "string"
        },
        {
          "internalType": "string",
          "name": "icNumber",
          "type": "string"
        },
        {
          "internalType": "string",
          "name": "gender",
          "type": "string"
        },
        {
          "internalType": "string",
          "name": "phone",
          "type": "string"
        },
        {
          "internalType": "address",
          "name": "createdBy",
          "type": "address"
        },
        {
          "internalType": "uint256",
          "name": "createdAt",
          "type": "uint256"
        }
      ],
      "stateMutability": "view",
      "type": "function",
      "constant": true
    },
    {
      "inputs": [
        {
          "internalType": "string",
          "name": "_patientName",
          "type": "string"
        },
        {
          "internalType": "string",
          "name": "_icNumber",
          "type": "string"
        },
        {
          "internalType": "string",
          "name": "_gender",
          "type": "string"
        },
        {
          "internalType": "string",
          "name": "_phone",
          "type": "string"
        }
      ],
      "name": "addPatient",
      "outputs": [
        {
          "internalType": "uint256",
          "name": "",
          "type": "uint256"
        }
      ],
      "stateMutability": "nonpayable",
      "type": "function"
    },
    {
      "inputs": [
        {
          "internalType": "uint256",
          "name": "_patientId",
          "type": "uint256"
        },
        {
          "internalType": "string",
          "name": "_diagnosis",
          "type": "string"
        },
        {
          "internalType": "string",
          "name": "_treatment",
          "type": "string"
        },
        {
          "internalType": "string",
          "name": "_doctorNotes",
          "type": "string"
        }
      ],
      "name": "addMedicalHistory",
      "outputs": [
        {
          "internalType": "uint256",
          "name": "",
          "type": "uint256"
        }
      ],
      "stateMutability": "nonpayable",
      "type": "function"
    },
    {
      "inputs": [
        {
          "internalType": "uint256",
          "name": "_patientId",
          "type": "uint256"
        }
      ],
      "name": "getPatientBasicInfo",
      "outputs": [
        {
          "internalType": "uint256",
          "name": "",
          "type": "uint256"
        },
        {
          "internalType": "string",
          "name": "",
          "type": "string"
        },
        {
          "internalType": "string",
          "name": "",
          "type": "string"
        }
      ],
      "stateMutability": "view",
      "type": "function",
      "constant": true
    },
    {
      "inputs": [
        {
          "internalType": "uint256",
          "name": "_patientId",
          "type": "uint256"
        }
      ],
      "name": "getPatientDetails",
      "outputs": [
        {
          "internalType": "string",
          "name": "",
          "type": "string"
        },
        {
          "internalType": "string",
          "name": "",
          "type": "string"
        },
        {
          "internalType": "string",
          "name": "",
          "type": "string"
        },
        {
          "internalType": "address",
          "name": "",
          "type": "address"
        },
        {
          "internalType": "uint256",
          "name": "",
          "type": "uint256"
        }
      ],
      "stateMutability": "view",
      "type": "function",
      "constant": true
    },
    {
      "inputs": [
        {
          "internalType": "uint256",
          "name": "_historyId",
          "type": "uint256"
        }
      ],
      "name": "getMedicalHistoryBasic",
      "outputs": [
        {
          "internalType": "uint256",
          "name": "",
          "type": "uint256"
        },
        {
          "internalType": "uint256",
          "name": "",
          "type": "uint256"
        },
        {
          "internalType": "string",
          "name": "",
          "type": "string"
        },
        {
          "internalType": "string",
          "name": "",
          "type": "string"
        }
      ],
      "stateMutability": "view",
      "type": "function",
      "constant": true
    },
    {
      "inputs": [
        {
          "internalType": "uint256",
          "name": "_historyId",
          "type": "uint256"
        }
      ],
      "name": "getMedicalHistoryDetails",
      "outputs": [
        {
          "internalType": "string",
          "name": "",
          "type": "string"
        },
        {
          "internalType": "address",
          "name": "",
          "type": "address"
        },
        {
          "internalType": "uint256",
          "name": "",
          "type": "uint256"
        }
      ],
      "stateMutability": "view",
      "type": "function",
      "constant": true
    },
    {
      "inputs": [
        {
          "internalType": "uint256",
          "name": "_patientId",
          "type": "uint256"
        }
      ],
      "name": "getPatientMedicalHistories",
      "outputs": [
        {
          "internalType": "uint256[]",
          "name": "",
          "type": "uint256[]"
        }
      ],
      "stateMutability": "view",
      "type": "function",
      "constant": true
    },
    {
      "inputs": [
        {
          "internalType": "uint256",
          "name": "_patientId",
          "type": "uint256"
        },
        {
          "internalType": "address",
          "name": "_grantedTo",
          "type": "address"
        }
      ],
      "name": "grantAccess",
      "outputs": [],
      "stateMutability": "nonpayable",
      "type": "function"
    },
    {
      "inputs": [
        {
          "internalType": "uint256",
          "name": "_patientId",
          "type": "uint256"
        },
        {
          "internalType": "address",
          "name": "_revokedFrom",
          "type": "address"
        }
      ],
      "name": "revokeAccess",
      "outputs": [],
      "stateMutability": "nonpayable",
      "type": "function"
    },
    {
      "inputs": [
        {
          "internalType": "uint256",
          "name": "_patientId",
          "type": "uint256"
        },
        {
          "internalType": "address",
          "name": "_checkAddress",
          "type": "address"
        }
      ],
      "name": "checkAccess",
      "outputs": [
        {
          "internalType": "bool",
          "name": "",
          "type": "bool"
        }
      ],
      "stateMutability": "view",
      "type": "function",
      "constant": true
    }
  ],
  "bytecode": "0x608060405234801561001057600080fd5b50600080546001600160a01b03191633179055611bcd806100326000396000f3fe608060405234801561001057600080fd5b506004361061010b5760003560e01c80638da5cb5b116100a2578063ced1419811610071578063ced141981461026a578063d13c87031461028a578063d9a5ec1b1461029d578063fc189d5d146102b0578063ff8e704f146102c35761010b565b80638da5cb5b1461020557806393119a831461021a578063a0303c4114610240578063bad48821146102485761010b565b80633091ce2c116100de5780633091ce2c1461018557806357bd2450146101a8578063627d9b4e146101ca57806365dd152c146101f05761010b565b806317c586bc14610110578063261b05a61461012e57806329d0939814610141578063300c601c14610161575b600080fd5b6101186102d6565b6040516101259190611a07565b60405180910390f35b61011861013c3660046116e8565b6102dc565b61015461014f366004611663565b61030d565b6040516101259190611768565b61017461016f366004611663565b6103ef565b604051610125959493929190611813565b610198610193366004611663565b61068e565b6040516101259493929190611ab8565b6101bb6101b6366004611663565b61086d565b604051610125939291906117b7565b6101dd6101d8366004611663565b6109c7565b6040516101259796959493929190611af4565b6102036101fe36600461167b565b610ba4565b005b61020d610caa565b6040516101259190611754565b61022d610228366004611663565b610cb9565b6040516101259796959493929190611a45565b610118610d69565b61025b610256366004611663565b610d6f565b60405161012593929190611a10565b61027d61027836600461167b565b610f58565b60405161012591906117ac565b61027d61029836600461167b565b610f78565b6102036102ab36600461167b565b610fcc565b6101186102be3660046116b5565b6110ff565b6101186102d13660046115bb565b6112f6565b60025481565b600660205281600052604060002081815481106102f857600080fd5b90600052602060002001600091509150505481565b60005460609082906001600160a01b03163314806103445750600081815260036020908152604080832033845290915290205460ff165b8061036857506000818152600460205260409020600501546001600160a01b031633145b61038d5760405162461bcd60e51b815260040161038490611935565b60405180910390fd5b600083815260066020908152604091829020805483518184028101840190945280845290918301828280156103e157602002820191906000526020600020905b8154815260200190600101908083116103cd575b505050505091505b50919050565b600080546060918291829190819086906001600160a01b031633148061042e5750600081815260036020908152604080832033845290915290205460ff165b8061045257506000818152600460205260409020600501546001600160a01b031633145b61046e5760405162461bcd60e51b815260040161038490611935565b60008711801561048057506001548711155b61049c5760405162461bcd60e51b8152600401610384906119a4565b600087815260046020819052604090912060058101546006820154600383018054939490939085019260028601926001600160a01b039091169185906104e190611b25565b80601f016020809104026020016040519081016040528092919081815260200182805461050d90611b25565b801561055a5780601f1061052f5761010080835404028352916020019161055a565b820191906000526020600020905b81548152906001019060200180831161053d57829003601f168201915b5050505050945083805461056d90611b25565b80601f016020809104026020016040519081016040528092919081815260200182805461059990611b25565b80156105e65780601f106105bb576101008083540402835291602001916105e6565b820191906000526020600020905b8154815290600101906020018083116105c957829003601f168201915b505050505093508280546105f990611b25565b80601f016020809104026020016040519081016040528092919081815260200182805461062590611b25565b80156106725780601f1061064757610100808354040283529160200191610672565b820191906000526020600020905b81548152906001019060200180831161065557829003601f168201915b5050505050925096509650965096509650505091939590929450565b6000806060806000851180156106a657506002548511155b6106c25760405162461bcd60e51b815260040161038490611978565b600085815260056020908152604080832060018101548452600383528184203385529092529091205460ff1680610717575060018101546000908152600460205260409020600501546001600160a01b031633145b6107335760405162461bcd60e51b815260040161038490611912565b80600001548160010154826002018360030181805461075190611b25565b80601f016020809104026020016040519081016040528092919081815260200182805461077d90611b25565b80156107ca5780601f1061079f576101008083540402835291602001916107ca565b820191906000526020600020905b8154815290600101906020018083116107ad57829003601f168201915b505050505091508080546107dd90611b25565b80601f016020809104026020016040519081016040528092919081815260200182805461080990611b25565b80156108565780601f1061082b57610100808354040283529160200191610856565b820191906000526020600020905b81548152906001019060200180831161083957829003601f168201915b505050505090509450945094509450509193509193565b606060008060008411801561088457506002548411155b6108a05760405162461bcd60e51b815260040161038490611978565b600084815260056020908152604080832060018101548452600383528184203385529092529091205460ff16806108f5575060018101546000908152600460205260409020600501546001600160a01b031633145b6109115760405162461bcd60e51b815260040161038490611912565b6005810154600682015460048301805490926001600160a01b03169190839061093990611b25565b80601f016020809104026020016040519081016040528092919081815260200182805461096590611b25565b80156109b25780601f10610987576101008083540402835291602001916109b2565b820191906000526020600020905b81548152906001019060200180831161099557829003601f168201915b50505050509250935093509350509193909250565b600560205260009081526040902080546001820154600283018054929391926109ef90611b25565b80601f0160208091040260200160405190810160405280929190818152602001828054610a1b90611b25565b8015610a685780601f10610a3d57610100808354040283529160200191610a68565b820191906000526020600020905b815481529060010190602001808311610a4b57829003601f168201915b505050505090806003018054610a7d90611b25565b80601f0160208091040260200160405190810160405280929190818152602001828054610aa990611b25565b8015610af65780601f10610acb57610100808354040283529160200191610af6565b820191906000526020600020905b815481529060010190602001808311610ad957829003601f168201915b505050505090806004018054610b0b90611b25565b80601f0160208091040260200160405190810160405280929190818152602001828054610b3790611b25565b8015610b845780601f10610b5957610100808354040283529160200191610b84565b820191906000526020600020905b815481529060010190602001808311610b6757829003601f168201915b50505050600583015460069093015491926001600160a01b031691905087565b60005482906001600160a01b0316331480610bd85750600081815260036020908152604080832033845290915290205460ff165b80610bfc57506000818152600460205260409020600501546001600160a01b031633145b610c185760405162461bcd60e51b815260040161038490611935565b6001600160a01b038216610c3e5760405162461bcd60e51b8152600401610384906118b2565b60008381526003602090815260408083206001600160a01b038616845290915290819020805460ff191660011790555183907f3c3a9147a1fc73dd51a32f4d10c43d457e8cb826eb6f35cac6349eb965ba82b490610c9d908590611754565b60405180910390a2505050565b6000546001600160a01b031681565b60046020526000908152604090208054600182018054919291610cdb90611b25565b80601f0160208091040260200160405190810160405280929190818152602001828054610d0790611b25565b8015610d545780601f10610d2957610100808354040283529160200191610d54565b820191906000526020600020905b815481529060010190602001808311610d3757829003601f168201915b5050505050908060020180546109ef90611b25565b60015481565b60008054606090819084906001600160a01b0316331480610da95750600081815260036020908152604080832033845290915290205460ff165b80610dcd57506000818152600460205260409020600501546001600160a01b031633145b610de95760405162461bcd60e51b815260040161038490611935565b600085118015610dfb57506001548511155b610e175760405162461bcd60e51b8152600401610384906119a4565b6000858152600460205260409020805460018201805460028401908290610e3d90611b25565b80601f0160208091040260200160405190810160405280929190818152602001828054610e6990611b25565b8015610eb65780601f10610e8b57610100808354040283529160200191610eb6565b820191906000526020600020905b815481529060010190602001808311610e9957829003601f168201915b50505050509150808054610ec990611b25565b80601f0160208091040260200160405190810160405280929190818152602001828054610ef590611b25565b8015610f425780601f10610f1757610100808354040283529160200191610f42565b820191906000526020600020905b815481529060010190602001808311610f2557829003601f168201915b5050505050905094509450945050509193909250565b600360209081526000928352604080842090915290825290205460ff1681565b60008281526003602090815260408083206001600160a01b038516845290915281205460ff1680610fc557506000838152600460205260409020600501546001600160a01b038381169116145b9392505050565b60005482906001600160a01b03163314806110005750600081815260036020908152604080832033845290915290205460ff165b8061102457506000818152600460205260409020600501546001600160a01b031633145b6110405760405162461bcd60e51b815260040161038490611935565b6001600160a01b0382166110665760405162461bcd60e51b8152600401610384906118b2565b6000838152600460205260409020600501546001600160a01b03838116911614156110a35760405162461bcd60e51b81526004016103849061186a565b60008381526003602090815260408083206001600160a01b038616845290915290819020805460ff191690555183907f125883b94692baebecad9f111ed97ffa626523bbbadc6b0ef85ee1b56b9e52d590610c9d908590611754565b6000805485906001600160a01b03163314806111345750600081815260036020908152604080832033845290915290205460ff165b8061115857506000818152600460205260409020600501546001600160a01b031633145b6111745760405162461bcd60e51b815260040161038490611935565b60008611801561118657506001548611155b6111a25760405162461bcd60e51b8152600401610384906119a4565b600280549060006111b283611b5a565b9091555050600280546040805160e08101825282815260208082018b81528284018b8152606084018b9052608084018a90523360a08501524260c085015260008681526005845294909420835181559051600182015592518051949592946112219385019291909101906114a1565b506060820151805161123d9160038401916020909101906114a1565b50608082015180516112599160048401916020909101906114a1565b5060a08201516005820180546001600160a01b0319166001600160a01b0390921691909117905560c09091015160069182015560008881526020918252604080822080546001810182559083529290912090910182905551879082907ff1923cbf7333362eb564ebb08940ddc9b9d014c8b9edb141b85ba60fde651edc906112e4908a908a906117e5565b60405180910390a39695505050505050565b6000808551116113185760405162461bcd60e51b8152600401610384906119d0565b60008451116113395760405162461bcd60e51b8152600401610384906118db565b6001805490600061134983611b5a565b9091555050600180546040805160e08101825282815260208082018a81528284018a905260608301899052608083018890523360a08401524260c0840152600085815260048352939093208251815592518051949592946113b19385019291909101906114a1565b50604082015180516113cd9160028401916020909101906114a1565b50606082015180516113e99160038401916020909101906114a1565b50608082015180516114059160048401916020909101906114a1565b5060a08201516005820180546001600160a01b0319166001600160a01b0390921691909117905560c090910151600690910155600081815260036020908152604080832033845290915290819020805460ff191660011790555181907f5503d2d8215e65ff1793a2ef4ff42f9b152e5e3258b6660e7f592a233508da7e9061149090899089906117e5565b60405180910390a295945050505050565b8280546114ad90611b25565b90600052602060002090601f0160209004810192826114cf5760008555611515565b82601f106114e857805160ff1916838001178555611515565b82800160010185558215611515579182015b828111156115155782518255916020019190600101906114fa565b50611521929150611525565b5090565b5b808211156115215760008155600101611526565b600082601f83011261154a578081fd5b813567ffffffffffffffff8082111561156557611565611b81565b604051601f8301601f19168101602001828111828210171561158957611589611b81565b6040528281528483016020018610156115a0578384fd5b82602086016020830137918201602001929092529392505050565b600080600080608085870312156115d0578384fd5b843567ffffffffffffffff808211156115e7578586fd5b6115f38883890161153a565b95506020870135915080821115611608578485fd5b6116148883890161153a565b94506040870135915080821115611629578384fd5b6116358883890161153a565b9350606087013591508082111561164a578283fd5b506116578782880161153a565b91505092959194509250565b600060208284031215611674578081fd5b5035919050565b6000806040838503121561168d578182fd5b8235915060208301356001600160a01b03811681146116aa578182fd5b809150509250929050565b600080600080608085870312156116ca578384fd5b84359350602085013567ffffffffffffffff80821115611608578485fd5b600080604083850312156116fa578182fd5b50508035926020909101359150565b60008151808452815b8181101561172e57602081850181015186830182015201611712565b8181111561173f5782602083870101525b50601f01601f19169290920160200192915050565b6001600160a01b0391909116815260200190565b6020808252825182820181905260009190848201906040850190845b818110156117a057835183529284019291840191600101611784565b50909695505050505050565b901515815260200190565b6000606082526117ca6060830186611709565b6001600160a01b039490941660208301525060400152919050565b6000604082526117f86040830185611709565b828103602084015261180a8185611709565b95945050505050565b600060a0825261182660a0830188611709565b82810360208401526118388188611709565b9050828103604084015261184c8187611709565b6001600160a01b039590951660608401525050608001529392505050565b60208082526028908201527f43616e6e6f74207265766f6b65206163636573732066726f6d207265636f72646040820152671031b932b0ba37b960c11b606082015260800190565b6020808252600f908201526e496e76616c6964206164647265737360881b604082015260600190565b60208082526019908201527f4943206e756d6265722063616e6e6f7420626520656d70747900000000000000604082015260600190565b6020808252600990820152684e6f2061636365737360b81b604082015260600190565b60208082526023908201527f4e6f2061636365737320746f20746869732070617469656e742773207265636f60408201526272647360e81b606082015260800190565b602080825260129082015271125b9d985b1a59081a1a5cdd1bdc9e48125160721b604082015260600190565b602080825260129082015271125b9d985b1a59081c185d1a595b9d08125160721b604082015260600190565b6020808252601c908201527f50617469656e74206e616d652063616e6e6f7420626520656d70747900000000604082015260600190565b90815260200190565b600084825260606020830152611a296060830185611709565b8281036040840152611a3b8185611709565b9695505050505050565b600088825260e06020830152611a5e60e0830189611709565b8281036040840152611a708189611709565b90508281036060840152611a848188611709565b90508281036080840152611a988187611709565b6001600160a01b039590951660a0840152505060c0015295945050505050565b600085825284602083015260806040830152611ad76080830185611709565b8281036060840152611ae98185611709565b979650505050505050565b600088825287602083015260e06040830152611b1360e0830188611709565b8281036060840152611a848188611709565b600281046001821680611b3957607f821691505b602082108114156103e957634e487b7160e01b600052602260045260246000fd5b6000600019821415611b7a57634e487b7160e01b81526011600452602481fd5b5060010190565b634e487b7160e01b600052604160045260246000fdfea2646970667358221220a4444d8c11bc7d1a1c72affd7420d4783eaad8aa2d96b5d7f890c1a782aabfcc64736f6c63430008000033",
  "immutableReferences": {},
  "source": "// SPDX-License-Identifier: MIT\r\npragma solidity ^0.8.0;\r\n\r\ncontract MedicalRecord {\r\n    address public owner;\r\n    uint256 public patientCount;\r\n    uint256 public medicalHistoryCount;\r\n    \r\n    event PatientAdded(uint256 indexed patientId, string patientName, string icNumber);\r\n    event MedicalHistoryAdded(uint256 indexed historyId, uint256 indexed patientId, string diagnosis, string treatment);\r\n    event AccessGranted(uint256 indexed patientId, address grantedTo);\r\n    event AccessRevoked(uint256 indexed patientId, address revokedFrom);\r\n    \r\n    struct Patient {\r\n        uint256 patientId;\r\n        string patientName;\r\n        string icNumber;\r\n        string gender;\r\n        string phone;\r\n        address createdBy;\r\n        uint256 createdAt;\r\n    }\r\n    \r\n    struct MedicalHistory {\r\n        uint256 historyId;\r\n        uint256 patientId;\r\n        string diagnosis;\r\n        string treatment;\r\n        string doctorNotes;\r\n        address createdBy;\r\n        uint256 visitDate;\r\n    }\r\n    \r\n    mapping(uint256 => mapping(address => bool)) public hasAccess;\r\n    mapping(uint256 => Patient) public patients;\r\n    mapping(uint256 => MedicalHistory) public medicalHistories;\r\n    mapping(uint256 => uint256[]) public patientMedicalHistories;\r\n    \r\n    modifier onlyOwner() {\r\n        require(msg.sender == owner, \"Only owner can call this function\");\r\n        _;\r\n    }\r\n    \r\n    modifier hasPatientAccess(uint256 _patientId) {\r\n        require(\r\n            msg.sender == owner || \r\n            hasAccess[_patientId][msg.sender] || \r\n            patients[_patientId].createdBy == msg.sender,\r\n            \"No access to this patient's records\"\r\n        );\r\n        _;\r\n    }\r\n    \r\n    constructor() {\r\n        owner = msg.sender;\r\n    }\r\n    \r\n    function addPatient(\r\n        string memory _patientName,\r\n        string memory _icNumber,\r\n        string memory _gender,\r\n        string memory _phone\r\n    ) public returns (uint256) {\r\n        require(bytes(_patientName).length > 0, \"Patient name cannot be empty\");\r\n        require(bytes(_icNumber).length > 0, \"IC number cannot be empty\");\r\n        \r\n        patientCount++;\r\n        uint256 newPatientId = patientCount;\r\n        \r\n        patients[newPatientId] = Patient({\r\n            patientId: newPatientId,\r\n            patientName: _patientName,\r\n            icNumber: _icNumber,\r\n            gender: _gender,\r\n            phone: _phone,\r\n            createdBy: msg.sender,\r\n            createdAt: block.timestamp\r\n        });\r\n        \r\n        hasAccess[newPatientId][msg.sender] = true;\r\n        emit PatientAdded(newPatientId, _patientName, _icNumber);\r\n        \r\n        return newPatientId;\r\n    }\r\n    \r\n    function addMedicalHistory(\r\n        uint256 _patientId,\r\n        string memory _diagnosis,\r\n        string memory _treatment,\r\n        string memory _doctorNotes\r\n    ) public hasPatientAccess(_patientId) returns (uint256) {\r\n        require(_patientId > 0 && _patientId <= patientCount, \"Invalid patient ID\");\r\n        \r\n        medicalHistoryCount++;\r\n        uint256 newHistoryId = medicalHistoryCount;\r\n        \r\n        medicalHistories[newHistoryId] = MedicalHistory({\r\n            historyId: newHistoryId,\r\n            patientId: _patientId,\r\n            diagnosis: _diagnosis,\r\n            treatment: _treatment,\r\n            doctorNotes: _doctorNotes,\r\n            createdBy: msg.sender,\r\n            visitDate: block.timestamp\r\n        });\r\n        \r\n        patientMedicalHistories[_patientId].push(newHistoryId);\r\n        emit MedicalHistoryAdded(newHistoryId, _patientId, _diagnosis, _treatment);\r\n        \r\n        return newHistoryId;\r\n    }\r\n    \r\n    // Simplified getters to avoid stack issues\r\n    function getPatientBasicInfo(uint256 _patientId) public view hasPatientAccess(_patientId) returns (uint256, string memory, string memory) {\r\n        require(_patientId > 0 && _patientId <= patientCount, \"Invalid patient ID\");\r\n        Patient storage patient = patients[_patientId];\r\n        return (patient.patientId, patient.patientName, patient.icNumber);\r\n    }\r\n    \r\n    function getPatientDetails(uint256 _patientId) public view hasPatientAccess(_patientId) returns (string memory, string memory, string memory, address, uint256) {\r\n        require(_patientId > 0 && _patientId <= patientCount, \"Invalid patient ID\");\r\n        Patient storage patient = patients[_patientId];\r\n        return (patient.gender, patient.phone, patient.icNumber, patient.createdBy, patient.createdAt);\r\n    }\r\n    \r\n    function getMedicalHistoryBasic(uint256 _historyId) public view returns (uint256, uint256, string memory, string memory) {\r\n        require(_historyId > 0 && _historyId <= medicalHistoryCount, \"Invalid history ID\");\r\n        MedicalHistory storage history = medicalHistories[_historyId];\r\n        require(hasAccess[history.patientId][msg.sender] || patients[history.patientId].createdBy == msg.sender, \"No access\");\r\n        \r\n        return (history.historyId, history.patientId, history.diagnosis, history.treatment);\r\n    }\r\n    \r\n    function getMedicalHistoryDetails(uint256 _historyId) public view returns (string memory, address, uint256) {\r\n        require(_historyId > 0 && _historyId <= medicalHistoryCount, \"Invalid history ID\");\r\n        MedicalHistory storage history = medicalHistories[_historyId];\r\n        require(hasAccess[history.patientId][msg.sender] || patients[history.patientId].createdBy == msg.sender, \"No access\");\r\n        \r\n        return (history.doctorNotes, history.createdBy, history.visitDate);\r\n    }\r\n    \r\n    function getPatientMedicalHistories(uint256 _patientId) public view hasPatientAccess(_patientId) returns (uint256[] memory) {\r\n        return patientMedicalHistories[_patientId];\r\n    }\r\n    \r\n    function grantAccess(uint256 _patientId, address _grantedTo) public hasPatientAccess(_patientId) {\r\n        require(_grantedTo != address(0), \"Invalid address\");\r\n        hasAccess[_patientId][_grantedTo] = true;\r\n        emit AccessGranted(_patientId, _grantedTo);\r\n    }\r\n    \r\n    function revokeAccess(uint256 _patientId, address _revokedFrom) public hasPatientAccess(_patientId) {\r\n        require(_revokedFrom != address(0), \"Invalid address\");\r\n        require(_revokedFrom != patients[_patientId].createdBy, \"Cannot revoke access from record creator\");\r\n        hasAccess[_patientId][_revokedFrom] = false;\r\n        emit AccessRevoked(_patientId, _revokedFrom);\r\n    }\r\n    \r\n    function checkAccess(uint256 _patientId, address _checkAddress) public view returns (bool) {\r\n        return hasAccess[_patientId][_checkAddress] || patients[_patientId].createdBy == _checkAddress;\r\n    }\r\n}",
  "sourcePath": "C:\\laragon\\www\\HealthcareSystem\\blockchain\\contracts\\MedicalRecord.sol",
  "compiler": {
    "name": "solc",
    "version": "0.8.0+commit.c7dfd78e.Emscripten.clang"
  },
  "schemaVersion": "3.4.16",
  "updatedAt": "2025-10-24T04:29:34.906Z",
  "networkType": "ethereum",
  "devdoc": {
    "kind": "dev",
    "methods": {},
    "version": 1
  },
  "userdoc": {
    "kind": "user",
    "methods": {},
    "version": 1
  }
}