{
  "contractName": "PatientRecordSystem",
  "abi": [
    {
      "inputs": [],
      "stateMutability": "nonpayable",
      "type": "constructor"
    },
    {
      "anonymous": false,
      "inputs": [
        {
          "indexed": false,
          "internalType": "uint256",
          "name": "patientId",
          "type": "uint256"
        },
        {
          "indexed": false,
          "internalType": "string",
          "name": "patientName",
          "type": "string"
        },
        {
          "indexed": false,
          "internalType": "string",
          "name": "icNumber",
          "type": "string"
        }
      ],
      "name": "PatientCreated",
      "type": "event"
    },
    {
      "anonymous": false,
      "inputs": [
        {
          "indexed": false,
          "internalType": "uint256",
          "name": "patientId",
          "type": "uint256"
        },
        {
          "indexed": false,
          "internalType": "string",
          "name": "patientName",
          "type": "string"
        },
        {
          "indexed": false,
          "internalType": "address",
          "name": "deletedBy",
          "type": "address"
        }
      ],
      "name": "PatientDeleted",
      "type": "event"
    },
    {
      "inputs": [],
      "name": "admin",
      "outputs": [
        {
          "internalType": "address",
          "name": "",
          "type": "address"
        }
      ],
      "stateMutability": "view",
      "type": "function",
      "constant": true
    },
    {
      "inputs": [
        {
          "internalType": "uint256",
          "name": "",
          "type": "uint256"
        }
      ],
      "name": "deletionRecords",
      "outputs": [
        {
          "internalType": "uint256",
          "name": "patientId",
          "type": "uint256"
        },
        {
          "internalType": "address",
          "name": "deletedBy",
          "type": "address"
        },
        {
          "internalType": "uint256",
          "name": "deletedAt",
          "type": "uint256"
        },
        {
          "internalType": "bytes32",
          "name": "deletionHash",
          "type": "bytes32"
        }
      ],
      "stateMutability": "view",
      "type": "function",
      "constant": true
    },
    {
      "inputs": [],
      "name": "nextDeletionId",
      "outputs": [
        {
          "internalType": "uint256",
          "name": "",
          "type": "uint256"
        }
      ],
      "stateMutability": "view",
      "type": "function",
      "constant": true
    },
    {
      "inputs": [],
      "name": "nextPatientId",
      "outputs": [
        {
          "internalType": "uint256",
          "name": "",
          "type": "uint256"
        }
      ],
      "stateMutability": "view",
      "type": "function",
      "constant": true
    },
    {
      "inputs": [
        {
          "internalType": "uint256",
          "name": "",
          "type": "uint256"
        }
      ],
      "name": "patients",
      "outputs": [
        {
          "internalType": "uint256",
          "name": "patientId",
          "type": "uint256"
        },
        {
          "internalType": "string",
          "name": "patientName",
          "type": "string"
        },
        {
          "internalType": "string",
          "name": "icNumber",
          "type": "string"
        },
        {
          "internalType": "string",
          "name": "gender",
          "type": "string"
        },
        {
          "internalType": "string",
          "name": "email",
          "type": "string"
        },
        {
          "internalType": "string",
          "name": "phone",
          "type": "string"
        },
        {
          "internalType": "string",
          "name": "homeAddress",
          "type": "string"
        },
        {
          "internalType": "bool",
          "name": "isActive",
          "type": "bool"
        }
      ],
      "stateMutability": "view",
      "type": "function",
      "constant": true
    },
    {
      "inputs": [
        {
          "internalType": "string",
          "name": "_name",
          "type": "string"
        },
        {
          "internalType": "string",
          "name": "_ic",
          "type": "string"
        },
        {
          "internalType": "string",
          "name": "_gender",
          "type": "string"
        },
        {
          "internalType": "string",
          "name": "_email",
          "type": "string"
        },
        {
          "internalType": "string",
          "name": "_phone",
          "type": "string"
        },
        {
          "internalType": "string",
          "name": "_address",
          "type": "string"
        }
      ],
      "name": "createPatient",
      "outputs": [],
      "stateMutability": "nonpayable",
      "type": "function"
    },
    {
      "inputs": [
        {
          "internalType": "uint256",
          "name": "_id",
          "type": "uint256"
        }
      ],
      "name": "getPatientBasic",
      "outputs": [
        {
          "internalType": "uint256",
          "name": "",
          "type": "uint256"
        },
        {
          "internalType": "string",
          "name": "",
          "type": "string"
        },
        {
          "internalType": "string",
          "name": "",
          "type": "string"
        },
        {
          "internalType": "bool",
          "name": "",
          "type": "bool"
        }
      ],
      "stateMutability": "view",
      "type": "function",
      "constant": true
    },
    {
      "inputs": [
        {
          "internalType": "uint256",
          "name": "_id",
          "type": "uint256"
        }
      ],
      "name": "getPatientContact",
      "outputs": [
        {
          "internalType": "string",
          "name": "",
          "type": "string"
        },
        {
          "internalType": "string",
          "name": "",
          "type": "string"
        },
        {
          "internalType": "string",
          "name": "",
          "type": "string"
        }
      ],
      "stateMutability": "view",
      "type": "function",
      "constant": true
    },
    {
      "inputs": [
        {
          "internalType": "uint256",
          "name": "_id",
          "type": "uint256"
        }
      ],
      "name": "getPatientAddress",
      "outputs": [
        {
          "internalType": "string",
          "name": "",
          "type": "string"
        }
      ],
      "stateMutability": "view",
      "type": "function",
      "constant": true
    },
    {
      "inputs": [
        {
          "internalType": "uint256",
          "name": "_id",
          "type": "uint256"
        }
      ],
      "name": "deletePatient",
      "outputs": [],
      "stateMutability": "nonpayable",
      "type": "function"
    },
    {
      "inputs": [
        {
          "internalType": "uint256",
          "name": "_deletionId",
          "type": "uint256"
        }
      ],
      "name": "getDeletionRecord",
      "outputs": [
        {
          "internalType": "uint256",
          "name": "",
          "type": "uint256"
        },
        {
          "internalType": "address",
          "name": "",
          "type": "address"
        },
        {
          "internalType": "uint256",
          "name": "",
          "type": "uint256"
        },
        {
          "internalType": "bytes32",
          "name": "",
          "type": "bytes32"
        }
      ],
      "stateMutability": "view",
      "type": "function",
      "constant": true
    },
    {
      "inputs": [],
      "name": "getActivePatientCount",
      "outputs": [
        {
          "internalType": "uint256",
          "name": "",
          "type": "uint256"
        }
      ],
      "stateMutability": "view",
      "type": "function",
      "constant": true
    },
    {
      "inputs": [],
      "name": "getDeletionCount",
      "outputs": [
        {
          "internalType": "uint256",
          "name": "",
          "type": "uint256"
        }
      ],
      "stateMutability": "view",
      "type": "function",
      "constant": true
    }
  ],
  "bytecode": "0x60806040526001600255600160035534801561001a57600080fd5b50600480546001600160a01b031916331790556114b78061003c6000396000f3fe608060405234801561001057600080fd5b50600436106100cf5760003560e01c80636bb0be6f1161008c5780639824d2b2116100665780639824d2b2146101b7578063b1131795146101ca578063e5cc8170146101d2578063f851a440146101f4576100cf565b80636bb0be6f1461016557806393119a831461016d57806395ff6ecd14610194576100cf565b8063097ee8cd146100d457806313a2ea9a146100fd57806333c2e9e51461011257806340a1b5ac1461011a57806356e619a41461012f57806367e5748214610152575b600080fd5b6100e76100e2366004610fe4565b610209565b6040516100f491906110e5565b60405180910390f35b6101056102dd565b6040516100f49190611222565b61010561032d565b61012d610128366004610ef6565b610343565b005b61014261013d366004610fe4565b6104dc565b6040516100f4949392919061127a565b61012d610160366004610fe4565b610657565b6101056107f0565b61018061017b366004610fe4565b6107f6565b6040516100f49897969594939291906112b9565b6101a76101a2366004610fe4565b610b6a565b6040516100f4949392919061122b565b6101a76101c5366004610fe4565b610b9c565b610105610bcf565b6101e56101e0366004610fe4565b610bd5565b6040516100f4939291906110ff565b6101fc610dcd565b6040516100f491906110d1565b600081815260208190526040902060078101546060919060ff166102485760405162461bcd60e51b815260040161023f90611142565b60405180910390fd5b806006018054610257906113ff565b80601f0160208091040260200160405190810160405280929190818152602001828054610283906113ff565b80156102d05780601f106102a5576101008083540402835291602001916102d0565b820191906000526020600020905b8154815290600101906020018083116102b357829003601f168201915b5050505050915050919050565b60008060015b6002548110156103275760008181526020819052604090206007015460ff161561031557816103118161143a565b9250505b8061031f8161143a565b9150506102e3565b50905090565b6000600160035461033e91906113e8565b905090565b6004546001600160a01b0316331461036d5760405162461bcd60e51b815260040161023f90611179565b604080516101008101825260025480825260208083018a81528385018a9052606084018990526080840188905260a0840187905260c08401869052600160e085018190526000938452838352949092208351815591518051939492936103da938501929190910190610ddc565b50604082015180516103f6916002840191602090910190610ddc565b5060608201518051610412916003840191602090910190610ddc565b506080820151805161042e916004840191602090910190610ddc565b5060a0820151805161044a916005840191602090910190610ddc565b5060c08201518051610466916006840191602090910190610ddc565b5060e091909101516007909101805460ff19169115159190911790556002546040517fb9bf61adf62876fee596444c1a04e20b0056084fa45760cfc2230d8b6f07e497916104b7918990899061124f565b60405180910390a1600280549060006104cf8361143a565b9190505550505050505050565b60008181526020819052604081206007810154606091829184919060ff166105165760405162461bcd60e51b815260040161023f90611142565b805460078201546001830180549091600285019160ff90911690839061053b906113ff565b80601f0160208091040260200160405190810160405280929190818152602001828054610567906113ff565b80156105b45780601f10610589576101008083540402835291602001916105b4565b820191906000526020600020905b81548152906001019060200180831161059757829003601f168201915b505050505092508180546105c7906113ff565b80601f01602080910402602001604051908101604052809291908181526020018280546105f3906113ff565b80156106405780601f1061061557610100808354040283529160200191610640565b820191906000526020600020905b81548152906001019060200180831161062357829003601f168201915b505050505091509450945094509450509193509193565b6004546001600160a01b031633146106815760405162461bcd60e51b815260040161023f90611179565b6000818152602081905260409020546106ac5760405162461bcd60e51b815260040161023f906111bb565b60008181526020819052604090206007015460ff166106dd5760405162461bcd60e51b815260040161023f906111eb565b6000818152602081815260408083208054915190939261070592916001860191429101611054565b60408051808303601f1901815282825280516020918201206080840183528554845233828501818152428686019081526060870184815260038054600090815260018089528982209a518b5594518a860180546001600160a01b0319166001600160a01b03909216919091179055925160028a015590519701969096558886529285905293839020600701805460ff1916905591519193507fd8a5d4317507791561fef716812e283e0813e343201893e99295a776073650a4926107ce9287928701919061134f565b60405180910390a1600380549060006107e68361143a565b9190505550505050565b60035481565b60006020819052908152604090208054600182018054919291610818906113ff565b80601f0160208091040260200160405190810160405280929190818152602001828054610844906113ff565b80156108915780601f1061086657610100808354040283529160200191610891565b820191906000526020600020905b81548152906001019060200180831161087457829003601f168201915b5050505050908060020180546108a6906113ff565b80601f01602080910402602001604051908101604052809291908181526020018280546108d2906113ff565b801561091f5780601f106108f45761010080835404028352916020019161091f565b820191906000526020600020905b81548152906001019060200180831161090257829003601f168201915b505050505090806003018054610934906113ff565b80601f0160208091040260200160405190810160405280929190818152602001828054610960906113ff565b80156109ad5780601f10610982576101008083540402835291602001916109ad565b820191906000526020600020905b81548152906001019060200180831161099057829003601f168201915b5050505050908060040180546109c2906113ff565b80601f01602080910402602001604051908101604052809291908181526020018280546109ee906113ff565b8015610a3b5780601f10610a1057610100808354040283529160200191610a3b565b820191906000526020600020905b815481529060010190602001808311610a1e57829003601f168201915b505050505090806005018054610a50906113ff565b80601f0160208091040260200160405190810160405280929190818152602001828054610a7c906113ff565b8015610ac95780601f10610a9e57610100808354040283529160200191610ac9565b820191906000526020600020905b815481529060010190602001808311610aac57829003601f168201915b505050505090806006018054610ade906113ff565b80601f0160208091040260200160405190810160405280929190818152602001828054610b0a906113ff565b8015610b575780601f10610b2c57610100808354040283529160200191610b57565b820191906000526020600020905b815481529060010190602001808311610b3a57829003601f168201915b5050506007909301549192505060ff1688565b600160208190526000918252604090912080549181015460028201546003909201546001600160a01b03909116919084565b6000908152600160208190526040909120805491810154600282015460039092015492936001600160a01b039091169290565b60025481565b60008181526020819052604090206007810154606091829182919060ff16610c0f5760405162461bcd60e51b815260040161023f90611142565b806003018160040182600501828054610c27906113ff565b80601f0160208091040260200160405190810160405280929190818152602001828054610c53906113ff565b8015610ca05780601f10610c7557610100808354040283529160200191610ca0565b820191906000526020600020905b815481529060010190602001808311610c8357829003601f168201915b50505050509250818054610cb3906113ff565b80601f0160208091040260200160405190810160405280929190818152602001828054610cdf906113ff565b8015610d2c5780601f10610d0157610100808354040283529160200191610d2c565b820191906000526020600020905b815481529060010190602001808311610d0f57829003601f168201915b50505050509150808054610d3f906113ff565b80601f0160208091040260200160405190810160405280929190818152602001828054610d6b906113ff565b8015610db85780601f10610d8d57610100808354040283529160200191610db8565b820191906000526020600020905b815481529060010190602001808311610d9b57829003601f168201915b50505050509050935093509350509193909250565b6004546001600160a01b031681565b828054610de8906113ff565b90600052602060002090601f016020900481019282610e0a5760008555610e50565b82601f10610e2357805160ff1916838001178555610e50565b82800160010185558215610e50579182015b82811115610e50578251825591602001919060010190610e35565b50610e5c929150610e60565b5090565b5b80821115610e5c5760008155600101610e61565b600082601f830112610e85578081fd5b813567ffffffffffffffff80821115610ea057610ea061146b565b604051601f8301601f191681016020018281118282101715610ec457610ec461146b565b604052828152848301602001861015610edb578384fd5b82602086016020830137918201602001929092529392505050565b60008060008060008060c08789031215610f0e578182fd5b863567ffffffffffffffff80821115610f25578384fd5b610f318a838b01610e75565b97506020890135915080821115610f46578384fd5b610f528a838b01610e75565b96506040890135915080821115610f67578384fd5b610f738a838b01610e75565b95506060890135915080821115610f88578384fd5b610f948a838b01610e75565b94506080890135915080821115610fa9578384fd5b610fb58a838b01610e75565b935060a0890135915080821115610fca578283fd5b50610fd789828a01610e75565b9150509295509295509295565b600060208284031215610ff5578081fd5b5035919050565b6001600160a01b03169052565b60008151808452815b8181101561102e57602081850181015186830182015201611012565b8181111561103f5782602083870101525b50601f01601f19169290920160200192915050565b60008482526020818554611067816113ff565b6001828116801561107f5760018114611094576110c1565b60ff19841688870152828801860194506110c1565b898752858720875b848110156110b75781548a820189015290830190870161109c565b5050858389010194505b5050509481520195945050505050565b6001600160a01b0391909116815260200190565b6000602082526110f86020830184611009565b9392505050565b6000606082526111126060830186611009565b82810360208401526111248186611009565b905082810360408401526111388185611009565b9695505050505050565b6020808252601f908201527f50617469656e74207265636f726420686173206265656e2064656c6574656400604082015260600190565b60208082526022908201527f4f6e6c792061646d696e2063616e20706572666f726d2074686973206163746960408201526137b760f11b606082015260800190565b60208082526016908201527514185d1a595b9d08191bd95cc81b9bdd08195e1a5cdd60521b604082015260600190565b60208082526017908201527f50617469656e7420616c72656164792064656c65746564000000000000000000604082015260600190565b90815260200190565b9384526001600160a01b039290921660208401526040830152606082015260800190565b6000848252606060208301526112686060830185611009565b82810360408401526111388185611009565b6000858252608060208301526112936080830186611009565b82810360408401526112a58186611009565b915050821515606083015295945050505050565b60006101008a83528060208401526112d38184018b611009565b905082810360408401526112e7818a611009565b905082810360608401526112fb8189611009565b9050828103608084015261130f8188611009565b905082810360a08401526113238187611009565b905082810360c08401526113378186611009565b91505082151560e08301529998505050505050505050565b60008482526020606081840152818554611368816113ff565b806060870152608060018084166000811461138a576001811461139e576113c9565b60ff1985168984015260a0890195506113c9565b8a8852868820885b858110156113c15781548b82018601529083019088016113a6565b8a0184019650505b505050505080925050506113e06040830184610ffc565b949350505050565b6000828210156113fa576113fa611455565b500390565b60028104600182168061141357607f821691505b6020821081141561143457634e487b7160e01b600052602260045260246000fd5b50919050565b600060001982141561144e5761144e611455565b5060010190565b634e487b7160e01b600052601160045260246000fd5b634e487b7160e01b600052604160045260246000fdfea264697066735822122071e6c4e6efd8541416f2ce835bd2ddb4e85e875ba5cb11e7a4a6c9f466c65a8664736f6c63430008000033",
  "immutableReferences": {},
  "source": "// SPDX-License-Identifier: MIT\r\npragma solidity ^0.8.0;\r\n\r\ncontract PatientRecordSystem {\r\n    struct Patient {\r\n        uint patientId;\r\n        string patientName;\r\n        string icNumber;\r\n        string gender;\r\n        string email;\r\n        string phone;\r\n        string homeAddress;\r\n        bool isActive;\r\n    }\r\n\r\n    struct DeletionRecord {\r\n        uint patientId;\r\n        address deletedBy;\r\n        uint deletedAt;\r\n        bytes32 deletionHash;\r\n    }\r\n\r\n    mapping(uint => Patient) public patients;\r\n    mapping(uint => DeletionRecord) public deletionRecords;\r\n    uint public nextPatientId = 1;\r\n    uint public nextDeletionId = 1;\r\n    address public admin;\r\n\r\n    event PatientCreated(uint patientId, string patientName, string icNumber);\r\n    event PatientDeleted(uint patientId, string patientName, address deletedBy);\r\n\r\n    modifier onlyAdmin() {\r\n        require(msg.sender == admin, \"Only admin can perform this action\");\r\n        _;\r\n    }\r\n\r\n    constructor() {\r\n        admin = msg.sender;\r\n    }\r\n\r\n    function createPatient(\r\n        string memory _name,\r\n        string memory _ic,\r\n        string memory _gender,\r\n        string memory _email,\r\n        string memory _phone,\r\n        string memory _address\r\n    ) public onlyAdmin {\r\n        patients[nextPatientId] = Patient(\r\n            nextPatientId,\r\n            _name,\r\n            _ic,\r\n            _gender,\r\n            _email,\r\n            _phone,\r\n            _address,\r\n            true\r\n        );\r\n\r\n        emit PatientCreated(nextPatientId, _name, _ic);\r\n        nextPatientId++;\r\n    }\r\n\r\n    // Split into multiple functions to avoid stack issues\r\n    function getPatientBasic(uint _id) public view returns (uint, string memory, string memory, bool) {\r\n        Patient storage patient = patients[_id];\r\n        require(patient.isActive, \"Patient record has been deleted\");\r\n        return (patient.patientId, patient.patientName, patient.icNumber, patient.isActive);\r\n    }\r\n\r\n    function getPatientContact(uint _id) public view returns (string memory, string memory, string memory) {\r\n        Patient storage patient = patients[_id];\r\n        require(patient.isActive, \"Patient record has been deleted\");\r\n        return (patient.gender, patient.email, patient.phone);\r\n    }\r\n\r\n    function getPatientAddress(uint _id) public view returns (string memory) {\r\n        Patient storage patient = patients[_id];\r\n        require(patient.isActive, \"Patient record has been deleted\");\r\n        return patient.homeAddress;\r\n    }\r\n\r\n    function deletePatient(uint _id) public onlyAdmin {\r\n        require(patients[_id].patientId != 0, \"Patient does not exist\");\r\n        require(patients[_id].isActive, \"Patient already deleted\");\r\n\r\n        Patient storage patient = patients[_id];\r\n        \r\n        bytes32 deletionHash = keccak256(abi.encodePacked(\r\n            patient.patientId,\r\n            patient.patientName,\r\n            block.timestamp\r\n        ));\r\n\r\n        deletionRecords[nextDeletionId] = DeletionRecord(\r\n            patient.patientId,\r\n            msg.sender,\r\n            block.timestamp,\r\n            deletionHash\r\n        );\r\n\r\n        patients[_id].isActive = false;\r\n        emit PatientDeleted(_id, patient.patientName, msg.sender);\r\n        nextDeletionId++;\r\n    }\r\n\r\n    function getDeletionRecord(uint _deletionId) public view returns (uint, address, uint, bytes32) {\r\n        DeletionRecord storage record = deletionRecords[_deletionId];\r\n        return (record.patientId, record.deletedBy, record.deletedAt, record.deletionHash);\r\n    }\r\n\r\n    function getActivePatientCount() public view returns (uint) {\r\n        uint count = 0;\r\n        for (uint i = 1; i < nextPatientId; i++) {\r\n            if (patients[i].isActive) {\r\n                count++;\r\n            }\r\n        }\r\n        return count;\r\n    }\r\n\r\n    function getDeletionCount() public view returns (uint) {\r\n        return nextDeletionId - 1;\r\n    }\r\n}",
  "sourcePath": "C:\\laragon\\www\\HealthcareSystem\\blockchain\\contracts\\PatientRecordSystem.sol",
  "compiler": {
    "name": "solc",
    "version": "0.8.0+commit.c7dfd78e.Emscripten.clang"
  },
  "schemaVersion": "3.4.16",
  "updatedAt": "2025-10-24T04:29:34.899Z",
  "networkType": "ethereum",
  "devdoc": {
    "kind": "dev",
    "methods": {},
    "version": 1
  },
  "userdoc": {
    "kind": "user",
    "methods": {},
    "version": 1
  }
}