{
  "contractName": "PatientRecordSystem",
  "abi": [
    {
      "inputs": [],
      "name": "nextPatientId",
      "outputs": [
        {
          "internalType": "uint256",
          "name": "",
          "type": "uint256"
        }
      ],
      "stateMutability": "view",
      "type": "function",
      "constant": true
    },
    {
      "inputs": [
        {
          "internalType": "uint256",
          "name": "",
          "type": "uint256"
        }
      ],
      "name": "patients",
      "outputs": [
        {
          "internalType": "uint256",
          "name": "patientId",
          "type": "uint256"
        },
        {
          "internalType": "string",
          "name": "patientName",
          "type": "string"
        },
        {
          "internalType": "string",
          "name": "icNumber",
          "type": "string"
        },
        {
          "internalType": "string",
          "name": "gender",
          "type": "string"
        },
        {
          "internalType": "string",
          "name": "email",
          "type": "string"
        },
        {
          "internalType": "string",
          "name": "phone",
          "type": "string"
        },
        {
          "internalType": "string",
          "name": "homeAddress",
          "type": "string"
        }
      ],
      "stateMutability": "view",
      "type": "function",
      "constant": true
    },
    {
      "inputs": [
        {
          "internalType": "string",
          "name": "_name",
          "type": "string"
        },
        {
          "internalType": "string",
          "name": "_ic",
          "type": "string"
        },
        {
          "internalType": "string",
          "name": "_gender",
          "type": "string"
        },
        {
          "internalType": "string",
          "name": "_email",
          "type": "string"
        },
        {
          "internalType": "string",
          "name": "_phone",
          "type": "string"
        },
        {
          "internalType": "string",
          "name": "_address",
          "type": "string"
        }
      ],
      "name": "createPatient",
      "outputs": [],
      "stateMutability": "nonpayable",
      "type": "function"
    },
    {
      "inputs": [
        {
          "internalType": "uint256",
          "name": "_id",
          "type": "uint256"
        }
      ],
      "name": "getPatient",
      "outputs": [
        {
          "internalType": "uint256",
          "name": "",
          "type": "uint256"
        },
        {
          "internalType": "string",
          "name": "",
          "type": "string"
        },
        {
          "internalType": "string",
          "name": "",
          "type": "string"
        },
        {
          "internalType": "string",
          "name": "",
          "type": "string"
        },
        {
          "internalType": "string",
          "name": "",
          "type": "string"
        },
        {
          "internalType": "string",
          "name": "",
          "type": "string"
        },
        {
          "internalType": "string",
          "name": "",
          "type": "string"
        }
      ],
      "stateMutability": "view",
      "type": "function",
      "constant": true
    }
  ],
  "bytecode": "0x6080604052600b60015534801561001557600080fd5b50610ce1806100256000396000f3fe608060405234801561001057600080fd5b506004361061004c5760003560e01c806340a1b5ac146100515780637d3a67961461006657806393119a8314610095578063b1131795146100a8575b600080fd5b61006461005f36600461095e565b6100bf565b005b610079610074366004610a53565b6101b0565b60405161008c9796959493929190610ab2565b60405180910390f35b6100796100a3366004610a53565b610550565b6100b160015481565b60405190815260200161008c565b6040518060e0016040528060015481526020018781526020018681526020018581526020018481526020018381526020018281525060008060015481526020019081526020016000206000820151816000015560208201518160010190816101279190610bc4565b506040820151600282019061013c9082610bc4565b50606082015160038201906101519082610bc4565b50608082015160048201906101669082610bc4565b5060a0820151600582019061017b9082610bc4565b5060c082015160068201906101909082610bc4565b505060018054915060006101a383610c84565b9190505550505050505050565b600060608060608060608060008060008a8152602001908152602001600020905080600001548160010182600201836003018460040185600501866006018580546101fa90610b3b565b80601f016020809104026020016040519081016040528092919081815260200182805461022690610b3b565b80156102735780601f1061024857610100808354040283529160200191610273565b820191906000526020600020905b81548152906001019060200180831161025657829003601f168201915b5050505050955084805461028690610b3b565b80601f01602080910402602001604051908101604052809291908181526020018280546102b290610b3b565b80156102ff5780601f106102d4576101008083540402835291602001916102ff565b820191906000526020600020905b8154815290600101906020018083116102e257829003601f168201915b5050505050945083805461031290610b3b565b80601f016020809104026020016040519081016040528092919081815260200182805461033e90610b3b565b801561038b5780601f106103605761010080835404028352916020019161038b565b820191906000526020600020905b81548152906001019060200180831161036e57829003601f168201915b5050505050935082805461039e90610b3b565b80601f01602080910402602001604051908101604052809291908181526020018280546103ca90610b3b565b80156104175780601f106103ec57610100808354040283529160200191610417565b820191906000526020600020905b8154815290600101906020018083116103fa57829003601f168201915b5050505050925081805461042a90610b3b565b80601f016020809104026020016040519081016040528092919081815260200182805461045690610b3b565b80156104a35780601f10610478576101008083540402835291602001916104a3565b820191906000526020600020905b81548152906001019060200180831161048657829003601f168201915b505050505091508080546104b690610b3b565b80601f01602080910402602001604051908101604052809291908181526020018280546104e290610b3b565b801561052f5780601f106105045761010080835404028352916020019161052f565b820191906000526020600020905b81548152906001019060200180831161051257829003601f168201915b50505050509050975097509750975097509750975050919395979092949650565b6000602081905290815260409020805460018201805491929161057290610b3b565b80601f016020809104026020016040519081016040528092919081815260200182805461059e90610b3b565b80156105eb5780601f106105c0576101008083540402835291602001916105eb565b820191906000526020600020905b8154815290600101906020018083116105ce57829003601f168201915b50505050509080600201805461060090610b3b565b80601f016020809104026020016040519081016040528092919081815260200182805461062c90610b3b565b80156106795780601f1061064e57610100808354040283529160200191610679565b820191906000526020600020905b81548152906001019060200180831161065c57829003601f168201915b50505050509080600301805461068e90610b3b565b80601f01602080910402602001604051908101604052809291908181526020018280546106ba90610b3b565b80156107075780601f106106dc57610100808354040283529160200191610707565b820191906000526020600020905b8154815290600101906020018083116106ea57829003601f168201915b50505050509080600401805461071c90610b3b565b80601f016020809104026020016040519081016040528092919081815260200182805461074890610b3b565b80156107955780601f1061076a57610100808354040283529160200191610795565b820191906000526020600020905b81548152906001019060200180831161077857829003601f168201915b5050505050908060050180546107aa90610b3b565b80601f01602080910402602001604051908101604052809291908181526020018280546107d690610b3b565b80156108235780601f106107f857610100808354040283529160200191610823565b820191906000526020600020905b81548152906001019060200180831161080657829003601f168201915b50505050509080600601805461083890610b3b565b80601f016020809104026020016040519081016040528092919081815260200182805461086490610b3b565b80156108b15780601f10610886576101008083540402835291602001916108b1565b820191906000526020600020905b81548152906001019060200180831161089457829003601f168201915b5050505050905087565b634e487b7160e01b600052604160045260246000fd5b600082601f8301126108e257600080fd5b813567ffffffffffffffff808211156108fd576108fd6108bb565b604051601f8301601f19908116603f01168101908282118183101715610925576109256108bb565b8160405283815286602085880101111561093e57600080fd5b836020870160208301376000602085830101528094505050505092915050565b60008060008060008060c0878903121561097757600080fd5b863567ffffffffffffffff8082111561098f57600080fd5b61099b8a838b016108d1565b975060208901359150808211156109b157600080fd5b6109bd8a838b016108d1565b965060408901359150808211156109d357600080fd5b6109df8a838b016108d1565b955060608901359150808211156109f557600080fd5b610a018a838b016108d1565b94506080890135915080821115610a1757600080fd5b610a238a838b016108d1565b935060a0890135915080821115610a3957600080fd5b50610a4689828a016108d1565b9150509295509295509295565b600060208284031215610a6557600080fd5b5035919050565b6000815180845260005b81811015610a9257602081850181015186830182015201610a76565b506000602082860101526020601f19601f83011685010191505092915050565b87815260e060208201526000610acb60e0830189610a6c565b8281036040840152610add8189610a6c565b90508281036060840152610af18188610a6c565b90508281036080840152610b058187610a6c565b905082810360a0840152610b198186610a6c565b905082810360c0840152610b2d8185610a6c565b9a9950505050505050505050565b600181811c90821680610b4f57607f821691505b602082108103610b6f57634e487b7160e01b600052602260045260246000fd5b50919050565b601f821115610bbf57600081815260208120601f850160051c81016020861015610b9c5750805b601f850160051c820191505b81811015610bbb57828155600101610ba8565b5050505b505050565b815167ffffffffffffffff811115610bde57610bde6108bb565b610bf281610bec8454610b3b565b84610b75565b602080601f831160018114610c275760008415610c0f5750858301515b600019600386901b1c1916600185901b178555610bbb565b600085815260208120601f198616915b82811015610c5657888601518255948401946001909101908401610c37565b5085821015610c745787850151600019600388901b60f8161c191681555b5050505050600190811b01905550565b600060018201610ca457634e487b7160e01b600052601160045260246000fd5b506001019056fea26469706673582212207319c80b6f1da3602eba05e98cacc35726a383bdcfa5942abbaf0b30c782906264736f6c63430008150033",
  "immutableReferences": {},
  "source": "// contracts/MyContract.sol\r\npragma solidity ^0.8.0;\r\n\r\n/**\r\n * @title PatientRecordSystem\r\n * @dev A simple smart contract to store and manage patient records.\r\n * The structure mimics the fields shown in the provided database image.\r\n */\r\ncontract PatientRecordSystem {\r\n    // --- 1. Define the Data Structure (Patient) ---\r\n    // A structure to hold the patient's data, similar to a database row.\r\n    struct Patient {\r\n        uint patientId;          // Corresponding to the 'patientId' column\r\n        string patientName;      // Corresponding to 'patientName'\r\n        string icNumber;         // Corresponding to 'ic_number'\r\n        string gender;           // Corresponding to 'gender'\r\n        string email;            // Corresponding to 'email'\r\n        string phone;            // Corresponding to 'phone'\r\n        string homeAddress;      // Corresponding to 'address'\r\n        // We'll omit 'created_at', 'updated_at', and 'doctorId' for simplicity\r\n        // as timestamps and foreign keys are complex in basic Solidity.\r\n    }\r\n\r\n    // --- 2. State Variables ---\r\n    // A mapping to store Patient structs, indexed by their unique ID.\r\n    // This is the core storage mechanism.\r\n    mapping(uint => Patient) public patients;\r\n\r\n    // A counter to assign the next unique ID. We'll start from 11 since your\r\n    // sample data goes up to ID 10.\r\n    uint public nextPatientId = 11;\r\n\r\n    // --- 3. Function to Create Data ---\r\n\r\n    /**\r\n     * @dev Creates a new patient record and stores it in the mapping.\r\n     * @param _name The patient's full name.\r\n     * @param _ic The patient's IC/National ID number.\r\n     * @param _gender The patient's gender.\r\n     * @param _email The patient's email address.\r\n     * @param _phone The patient's phone number.\r\n     * @param _address The patient's home address.\r\n     */\r\n    function createPatient(\r\n        string memory _name,\r\n        string memory _ic,\r\n        string memory _gender,\r\n        string memory _email,\r\n        string memory _phone,\r\n        string memory _address\r\n    ) public {\r\n        // 1. Store the data using the current ID\r\n        patients[nextPatientId] = Patient(\r\n            nextPatientId,\r\n            _name,\r\n            _ic,\r\n            _gender,\r\n            _email,\r\n            _phone,\r\n            _address\r\n        );\r\n\r\n        // 2. Increment the counter for the next record\r\n        nextPatientId++;\r\n    }\r\n\r\n    // --- 4. Function to Read Data (Optional but recommended) ---\r\n\r\n    /**\r\n     * @dev Retrieves a patient record by their ID.\r\n     * @param _id The patient ID to look up.\r\n     * @return All fields of the patient record.\r\n     */\r\n    function getPatient(uint _id) public view returns (\r\n        uint,\r\n        string memory,\r\n        string memory,\r\n        string memory,\r\n        string memory,\r\n        string memory,\r\n        string memory\r\n    ) {\r\n        Patient storage patient = patients[_id];\r\n        return (\r\n            patient.patientId,\r\n            patient.patientName,\r\n            patient.icNumber,\r\n            patient.gender,\r\n            patient.email,\r\n            patient.phone,\r\n            patient.homeAddress\r\n        );\r\n    }\r\n}",
  "sourcePath": "C:\\laragon\\www\\HealthcareSystem\\blockchain\\contracts\\mycontract.sol",
  "compiler": {
    "name": "solc",
    "version": "0.8.21+commit.d9974bed.Emscripten.clang"
  },
  "schemaVersion": "3.4.16",
  "updatedAt": "2025-10-10T00:49:17.006Z",
  "networkType": "ethereum",
  "devdoc": {
    "details": "A simple smart contract to store and manage patient records. The structure mimics the fields shown in the provided database image.",
    "kind": "dev",
    "methods": {
      "createPatient(string,string,string,string,string,string)": {
        "details": "Creates a new patient record and stores it in the mapping.",
        "params": {
          "_address": "The patient's home address.",
          "_email": "The patient's email address.",
          "_gender": "The patient's gender.",
          "_ic": "The patient's IC/National ID number.",
          "_name": "The patient's full name.",
          "_phone": "The patient's phone number."
        }
      },
      "getPatient(uint256)": {
        "details": "Retrieves a patient record by their ID.",
        "params": {
          "_id": "The patient ID to look up."
        },
        "returns": {
          "_0": "All fields of the patient record."
        }
      }
    },
    "title": "PatientRecordSystem",
    "version": 1
  },
  "userdoc": {
    "kind": "user",
    "methods": {},
    "version": 1
  }
}